:020000040800F2
:10000000C878002085020008234D000865410008DB
:10001000214D0008FB0C0008557600080000000088
:10002000000000000000000000000000C501000802
:100030004D0F000800000000210200087552000862
:100040009F0200089F0200089F0200089F0200080C
:100050009F0200089F0200089F0200089F020008FC
:100060009F0200089F0200089F0200086D0E000812
:10007000790E00089F020008850E00089F02000804
:100080009F020008910E00089F0200089F020008CE
:10009000FD0C0008090D00089F0200089F020008DF
:1000A0009F0200089F0200089F0200089F020008AC
:1000B0009F0200089F0200089F0200089F0200089C
:1000C0009F0200089F0200089F0200089F0200088C
:1000D0009F020008AD5A00089F0200089F02000816
:1000E0009F0200089F0200089F0200089F0200086C
:1000F0009F0200089F0200089F0200089F0200085C
:100100009F0200089F0200089F0200089F0200084B
:100110009F0200089F0200089F0200083553000854
:100120009F0200089F0200089D0E00089F02000821
:100130009F0200089F0200089F0200089F0200081B
:10014000150D0008210D00089F020008254D00082C
:100150009F0200089F0200089F020008B95A000889
:100160009F0200089F0200089F0200089F020008EB
:100170009F0200089F0200089F0200080000000084
:100180009F0200089F02000825560008315600080B
:100190009F0200089F0200089F0200089F020008BB
:1001A00000000000000000009F020008DFF810D0EF
:1001B00000F0F6FB0048004705850008AFF300801B
:1001C000C87800202C4B19680868B0E8F04F80F31D
:1001D0000988BFF36F8F4FF0000080F311887047DC
:1001E0000000000008480068006880F308884FF0AD
:1001F000000080F3148862B661B6BFF34F8FBFF37F
:100200006F8F00DF00BF00BF08ED00E0DFF80C00DB
:10021000016841F470010160704700BF88ED00E0A3
:10022000EFF30980BFF36F8F134B1A681EF0100FA6
:1002300008BF20ED108A20E9F04F106009B44FF09C
:10024000500080F31188BFF34F8FBFF36F8F09F019
:1002500093F94FF0000080F3118809BC1968086811
:10026000B0E8F04F1EF0100F08BFB0EC108A80F31A
:100270000988BFF36F8F7047B0000020EFF305804F
:10028000704700000648804706480047FEE7FEE743
:10029000FEE7FEE7FEE7FEE7FEE7FEE7FEE7FEE736
:1002A00025530008AD0100082DE9F05F0546002048
:1002B00092469B4688460646814640241BE02846D7
:1002C00041464746224600F03AF953465A46C01A7C
:1002D000914110D311461846224600F021F92D1AFB
:1002E00067EB01084F4622460120002100F018F973
:1002F00017EB00094E41201EA4F10104DFDC484643
:1003000031462A464346BDE8F09F40EA01039B0779
:1003100003D009E008C9121F08C0042AFAD203E07A
:1003200011F8013B00F8013B521EF9D27047D2B2DE
:1003300001E000F8012B491EFBD270470022F6E7CE
:1003400010B513460A4604461946FFF7F0FF20464B
:1003500010BD2DE9FE4F81EA030404F0004421F0B2
:10036000004100944FF0000B23F0004350EA0104D9
:100370005ED052EA03045BD0C3F30A54C1F30A55BA
:100380002C44A4F2F3340194A0FB0254C1F31301F2
:1003900041F48011C3F3130343F4801301FB0244BF
:1003A00000FB034E840A970A44EA815447EA8357C4
:1003B000A4FB076802958D0A05FB07854FEA932C7D
:1003C00004FB0C542705029D4FEA065847EA1637EE
:1003D000B5EB08056EEB070C870E920E47EA811706
:1003E00042EA8312A7FB0201B6EB0B0164EB0004A7
:1003F0002B0D43EA0C335E1844EB1C50DA46514691
:10040000E7FB0201C5F313044FEA0B3343EA14532D
:100410004FEA0432019C43EA0603A4F10C0402945F
:10042000009CCDE900B400F0E0F803B0BDE8F08F27
:1004300000200146F9E700F0004230F000400AD009
:10044000C10D01F56071C0F3160042EA0151C20806
:1004500040071143704700200146704730B5041E25
:1004600071F1000404DB4FF00044404264EB0101F1
:10047000141E73F1000405DB1C464FF0004352428A
:1004800063EB04038B4208BF824230BD30B5041ECB
:1004900071F1000404DB4FF00044404264EB0101C1
:1004A000141E73F1000405DB1C464FF0004352425A
:1004B00063EB0403994208BF904230BD01F0004352
:1004C00030B421F0004150EA010206D00A0DA2F535
:1004D0006072C1F31301002A02DC30BC00207047B7
:1004E000440F44EAC104C100E01830BC00EBC25024
:1004F00000F035B830B50B4601460020202201241B
:1005000009E021FA02F59D4205D303FA02F5491BE1
:1005100004FA02F52844151EA2F10102F1DC30BDF7
:10052000202A04DB203A00FA02F1002070479140B3
:10053000C2F1200320FA03F3194390407047202AA8
:1005400004DB203A21FA02F00021704721FA02F37D
:10055000D040C2F12002914008431946704700295B
:10056000A8BF7047401C490008BF20F00100704739
:1005700010B4B0FA80FC00FA0CF050EA010404BF99
:1005800010BC704749B1CCF1200421FA04F411FAEF
:100590000CF118BF012121430843A3EB0C01CB1D33
:1005A0004FEA00614FEA102042BF002010BC7047A4
:1005B00000EBC35010440029A4BF10BC7047401C7E
:1005C000490008BF20F0010010BC704710B5141E90
:1005D00073F1000408DA401C41F1000192185B41FC
:1005E0001A4301D120F0010010BD2DE9F04D9246D3
:1005F0009B4611B1B1FA81F202E0B0FA80F22032EA
:100600009046FFF78DFF04460F4640EA0A0041EA94
:100610000B0153465A46084313D0114653EA0100D2
:1006200019D0C8F140025046FFF789FF05460E4633
:10063000504659464246FFF773FF084305D0012054
:1006400004E020463946BDE8F08D0020054346EA27
:10065000E0762C4337430A986305E40AA0EB0800D0
:100660000022FD0A44EA47540A3002D50020014620
:10067000E9E7010510196941DDE9084500196941FB
:10068000BDE8F04DA2E72DE9FE4F804681EA030068
:10069000C00F0C46009021F0004123F00045B8EB5C
:1006A0000200A94105D24046214690461C460B4611
:1006B000024623F00040104347D0270DC7F30A003D
:1006C000C3F30A510290401A019040286BDAC3F339
:1006D000130040F4801B0098924620B10023D2EB17
:1006E000030A63EB0B0B01985946C0F140025046D8
:1006F000FFF716FF06460D4650465946019A00F090
:1007000061F910EB08006141002487EA115284EA84
:10071000E7731A4340D0009A62B3019A012A4FEA64
:10072000075215DC001B61EB02014FF0004202EAA8
:100730000752CDE90042001C41F5801132462B469C
:10074000FFF753FF03B0BDE8F08F40462146F9E7BD
:10075000001B61EB0201001C41F5801300185B4196
:100760002018A2F5001747EB030140EAD570B6192F
:100770006D4111E06D084FEA360645EAC0754FEA53
:100780000752001B61EB0201001C41F58011490872
:100790004FEA30000019514132462B4603B0BDE804
:1007A000F04FFFF713BF0098012240000023D0EB69
:1007B000020263EBE073009821464FEAE074B8EB65
:1007C000000061EB0401E9E783F000435BE781F09F
:1007D000004158E72DE9F04D81EA030404F0004B95
:1007E00021F0004514464FF0000A23F0004150EA82
:1007F000050220D054EA01021DD0C5F30A57024673
:10080000C5F31303C1F31300C1F30A5640F4801576
:1008100043F48013A7EB0608101BD64608F2FD38F8
:1008200073EB050002D308F1010801E092185B4167
:10083000B8F1000F03DA00200146BDE8F08D00207A
:100840004FF48011064684460EE0171B73EB050734
:1008500005D3121B63EB050306434CEA010C490860
:100860004FEA300092185B4150EA0107EDD152EA9D
:10087000030012D082EA040083EA0501084305D090
:10088000101BAB4106D20122002306E000224FF0EC
:10089000004302E06FF0010253101AEB06004CEB2C
:1008A000085110EB0A0041EB0B01BDE8F04DFFF7DA
:1008B0008DBE2DE9FE4FC3F30A5701F00045002419
:1008C000C1F30A56C3F31303C1F3130143F48013B6
:1008D00012EB020AA64641F48011009543EB030C8B
:1008E000A7F1010B16E0B0EB0A0061EB0C01071E4B
:1008F00071F1000707DA4FF00008D0EB080085F02F
:10090000004568EB0101171A73EB0107EBD3761E64
:10091000001849415E45F6DA50EA010209D0CDE9F6
:1009200000E5002213460296FFF75FFE03B0BDE824
:10093000F08F20460099F9E7C1F30A52C1F3130181
:1009400040F2FF3341F480119A4202DA002001465E
:10095000704740F233439A42A2F2334202DC5242E1
:10096000FFF7EDBDFFF7DCBD002801DBC0F1004063
:10097000002901DBC1F10041814202D24FF0004069
:1009800004E04FF0005001D14FF0C0404FEA206228
:10099000EFF3008162F31F6181F30088704700006C
:1009A000064C074D06E0E06840F0010394E80700BC
:1009B00098471034AC42F6D3FFF7FCFBC0FF0008A9
:1009C000E0FF0008202A06DBCB17203A41FA02F0AC
:1009D00043EAE07306E041FA02F3D040C2F120029C
:1009E000914008431946704770B58C1810F8015BA8
:1009F00015F0070301D110F8013B2A1106D110F8B8
:100A0000012B03E010F8016B01F8016B5B1EF9D1BB
:100A10002B0705D40023521E0DD401F8013BFAE741
:100A200010F8013BCB1A921C03E013F8015B01F8AC
:100A3000015B521EF9D5A142D8D3002070BD000041
:100A400008B500200F4C471E4FF4FA7640F6C41547
:100A500000903B466A46FF21002009F0EDF908F0BE
:100A6000B9FB0098012804D0022805D0032803D040
:100A700004E02068466301E02068456308F0CAFB93
:100A8000E7E700009802002010B5012007F0A4FD60
:100A9000FBE700002DED028B84B007F01FFE9FEDF9
:100AA0005C8ADFED5C8A5D4D5D4C05F19000039042
:100AB00090300290903001905A48574E04F1900BBC
:100AC000007804F5907A04F5D8794FF47A7110FB28
:100AD00001F7884609F046F90090D6ED060AB0EE17
:100AE000480A4E4804F0E2F9D6ED0F0AB0EE480A83
:100AF000039804F0DBF9D6ED180AB0EE680A029804
:100B000004F0D4F9D6ED210AB0EE680A019804F099
:100B1000CDF9D6ED020A95ED1A0A414804F0C6F95E
:100B2000D6ED0B0A95ED3E0A584604F0BFF9D6ED16
:100B3000140A95ED620A504604F0B8F9D6ED1D0A84
:100B400095ED860A484604F0B1F994ED1A0AB5EE1F
:100B5000C00AF1EE10FA01DDB02001E06FF0AF0045
:100B600000EE900A94ED3E1AB5EEC00AF8EEE00AE7
:100B700070EE200AFDEEE00A10EE900AF1EE10FA97
:100B800000B201DDB42101E06FF0B30100EE901A74
:100B9000B5EEC00AF8EEE00A71EE200A94ED621A92
:100BA000FDEEE00A10EE901AF1EE10FA09B202DD45
:100BB00040F2051201E06FF4827200EE902AB5EE69
:100BC000C00AF8EEE00A71EE600AFDEEE00A10EEEF
:100BD000902AD4ED860AF1EE10FA12B202DD40F24C
:100BE0000B1301E06FF4857300EE103AB8EEC00A03
:100BF00030EEC00ABDEEC00A10EE103A1BB200F093
:100C0000C1F8B7FBF8F1684608F0E2FB62E70000C4
:100C1000E22E6549E22E65C9E06B0020106D0020D0
:100C2000506F0020ACA20008022006F001FE074829
:100C30000023032280ED000A05480221006809F024
:100C400013F8052007F0C8FCFBE70000380200207D
:100C50002C00002010B5012007F0BEFCFBE70000CF
:100C60001B4800242DED028B82B0D0ED008A90ED60
:100C7000018A07F0C1FD1A48DFF85890164E174F49
:100C800000784FF47A7110FB01F5884609F06AF894
:100C9000009099F80000D6ED000A012815D0B0EEBA
:100CA000680A0E4804F002F997ED1A0ABDEEC00A70
:100CB00010EE100A60F30F0420B200F089F8B5FBC3
:100CC000F8F1684608F084FBE0E7B0EE480AE8E790
:100CD00040A1000808000020706C00202072002055
:100CE000ACA2000810B5012007F076FCFBE706F087
:100CF000B3FC052007F070FCF9E7FEE7014800F0BF
:100D000028BB000048020020014800F022BB000080
:100D100048020020014800F01CBB000070020020C7
:100D2000014800F016BB00007002002000B58BB037
:100D300000200121CDE9060103900090019002906E
:100D400004900891059069460C4800F001FA0B48A0
:100D500000F0C0FE0221094800F080F90E20099041
:100D600005906946064800F0F3F9054800F0B2FE28
:100D70000221034800F072F90BB000BD48020020C8
:100D800070020020F8B50F4C4FF40075082625605E
:100D90000025A560C4E9035625750B4C050A25708E
:100DA0006070080AA070E170100A20716271180A60
:100DB000A071E3716B4622460249044800F060F9D5
:100DC000F8BD0000B06B0020C001002048020020E8
:100DD00008B50A4940F2FF1208230A6000228A601F
:100DE000C1E903230A750649020A6B460A70487076
:100DF0000A460249034800F043F908BDC86B0020C9
:100E0000C8010020480200200020704700207047E1
:100E100010B500220449054805F09EF8044903482E
:100E200005F08DF8002010BDD8130020FC0600202E
:100E3000D80B002070B50C460A68054601460748E5
:100E4000FFF763FA0649206808602946054805F05F
:100E500076F8044805F04CF8002070BDD80B00204F
:100E60000C000020FC06002000207047014800F024
:100E7000BFBE0000F4050020014800F0B9BE00002C
:100E800034050020014800F0B3BE0000D404002067
:100E9000014800F0ADBE000094050020014800F0BC
:100EA000A7BE00005406002001681823CAB2103AF9
:100EB000B2FBF3F2054B6FF30901032A9B5CC36598
:100EC00000D9091D81650846704700008CA2000802
:100ED00010B5014600208B698A6A4FF0C07453B187
:100EE000B3F5005F15D072B1012A0CD0022A0AD0E6
:100EF000032A09D104E01AB1012A06D0022A03D13B
:100F0000C96AC90100D5012010BDC96AA142FAD041
:100F100010BD002AF7D0012AF2D0022AF3D0032A0A
:100F2000F3D010BD30B50468256825F48025256010
:100F3000046863608368402B036803D0996000688D
:100F4000C26030BD9A600068C16030BD704700006B
:100F500010B501220549064807F03CFABDE81040EB
:100F600001220249034803F01FB80000F4010020E9
:100F7000307400208C04002010B5044680ED140A63
:100F800000F00EF884ED170A10BD10B5044680ED90
:100F9000140A06F071FB84ED170A10BD72B6FEE765
:100FA00010B52D4C2DED048BF0EE608AB0EE408A2A
:100FB0002068FFF740FA41EC190B18EE100AFFF712
:100FC0003AFA41EC100BB0EE491AF0EE691A06F04D
:100FD00009FD51EC100BFFF771FA08EE100A2068BA
:100FE000FFF729FA41EC190B18EE900AFFF723FAE4
:100FF00041EC100BB0EE491AF0EE691A06F0F2FC63
:1010000051EC100BFFF75AFA00EE900AB4EEE08AAA
:10101000F1EE10FA02DB38EE600A05E094ED000A0A
:1010200030EE600A30EE080AF4EEC80AF1EE10FA6B
:1010300002DB70EEC80A05E094ED001A31EE481AA2
:1010400071EE200AB4EEE00AF1EE10FA01D3B1EE2F
:10105000600ABDEC048B10BD0000002090F8202039
:10106000012A07D0022A05D0416A41F48021416259
:1010700001207047006842690A43426100207047BE
:10108000F0B590F820500468A468012D05D0022D19
:1010900003D0416A41F4802157E014F0406F01D140
:1010A000E5004FD5C4F301640125A5401D608D689E
:1010B0004FF4C0739DB1CE6835434E6845EAC6050E
:1010C000066803EB0417F5514FF4C275076805EB8A
:1010D00004150E697E51097D012905D009E00E88AD
:1010E000CD6845EA4655EBE701684E5946F48076EF
:1010F0004E511179D579567941EA056195792D04DA
:1011000045EA062529434FF4C676056806EB041622
:10111000A9511178D57841EA0561957852782D0466
:1011200045EA022211434FF4C475026805EB041529
:101130005151006803EB0411425842F00102425041
:101140000020F0BD416A41F4001141620120F0BD70
:1011500010B590F82020012A07D0022A05D0416A54
:1011600041F480214162012010BD3B48D0F80022AB
:1011700042F00102C0F80022D0F8002222F47C5292
:10118000C0F80022D0F800224B6A42EA0322C0F8DD
:1011900000220A7D02F01F0301229A40D0F81C327F
:1011A0009343C0F81C32CB69B3B9D0F80C329343E7
:1011B000C0F80C328C894B6864F31F434C6900EB18
:1011C000C404C4F840320C890B6864F31F434C69B3
:1011D00000EBC404C4F84432CB69012B16D1D0F81B
:1011E0000C321343C0F80C320C884B6864F31F4375
:1011F0004C6900EBC404C4F840320C89CB6864F33A
:101200001F434C6900EBC404C4F844328B69002BC3
:10121000D0F804320ED01343C0F804320B69002B0F
:10122000D0F8143208D01343C0F81432096A0129E7
:1012300004D008E09343EFE79343F5E7D0F81C129E
:101240001143C0F81C12D0F8001221F00101C0F8BF
:101250000012002010BD000000640040704770B50F
:1012600090F82040012C05D0022C03D0416A41F4B3
:10127000802128E0046809B32469A40720D04FF432
:10128000D874056804EB01142D5915F00405956018
:1012900005682D591AD0ED08556005682C5904F0E1
:1012A0000204D4604FF4DA74056804EB01142E597B
:1012B00006F00F06082E0CD308250DE0E468DCE7E5
:1012C000416A41F400114162012070BD6D0D15604D
:1012D000E3E72D5905F00F05156105682D59C5F394
:1012E0000725956105682C59240C54614FF4DC7274
:1012F000046802EB0112A4581C700468A458240A64
:101300005C700468A458240C9C700468A258120EE7
:10131000DA704FF4DE72046802EB0112A4581C71FB
:101320000468A458240A5C710468A458240C9C71B5
:101330000468A258120EDA71006829B1016941F0FF
:1013400020010161002070BDC16841F02001C16031
:10135000F8E72DE9F05F0546006800244669D0F8FB
:1013600004908768D0F80CB0D0F810A0D0F818809E
:10137000F10748D0F90714D001218160B80703D5DF
:10138000284600F0D4FB0CE0780702D54FF4006447
:1013900007E0380702D54FF4805402E0284600F0F9
:1013A000C5FBF80516D529684FF480708860B8052C
:1013B00003D5284600F0BDFB0CE0780502D544F4C7
:1013C000005407E0380502D544F4804402E0284682
:1013D00000F0AEFBF80316D529684FF48030886022
:1013E000B80303D5284600F0A6FB0CE0780302D52D
:1013F00044F4004407E0380302D544F4803402E0AA
:10140000284600F097FB300707D55FEACB6004D58C
:101410002968102044F40074C86070074FF0080772
:1014200007D55FEA0B7004D52868C760284600F02E
:10143000A9F9B00706D52868C068800702D02846F9
:1014400000F0A2F9700607D55FEACA6004D52968E2
:10145000102044F480640861B00607D55FEA0A7082
:1014600004D528680761284600F030FBF00606D551
:1014700028680069800702D0284600F028FBB003E6
:1014800008D55FEAC96005D529681020486028465C
:1014900000F01EFBF00307D55FEA097004D5286849
:1014A0004760284600F048FB300446D55FEA4970A3
:1014B00040D5F00504D55FEAC87001D044F00104BE
:1014C000B00504D55FEA887001D544F002047005C8
:1014D00004D55FEA487001D544F00404300529D5ED
:1014E00018F0700F26D008F07000402815D006DCE8
:1014F000102809D020280AD0302816D10AE0502818
:101500000ED0602811D10EE044F008040DE044F044
:1015100010040AE044F0200407E044F0400404E032
:1015200044F0800401E044F480742868816921F06B
:1015300070018161296804204860002C05D0686A28
:10154000204368622846FFF789FEBDE8F09F70B52A
:10155000040003D094F8200010B104E0012070BD15
:10156000204600F081F82068016841F00101016027
:1015700000F0EEFD0546052604E000F0E9FD401B05
:101580000A2811D820684068C007F6D02068016892
:1015900021F00201016000F0DBFD05460BE000F0E8
:1015A000D7FD401B0A2806D9606A40F4003060620B
:1015B00084F82060D2E7206840688007EFD4207E5E
:1015C0000128206801683DD021F080010160607E23
:1015D00001282068016838D021F040010160A07E18
:1015E00001282068016833D021F020010160E07EED
:1015F0000128206801682ED041F010010160207F91
:1016000001282068016829D021F008010160607F6D
:1016100001282068016824D021F004010160D4E988
:1016200002010843D4E90412114308436168491ECA
:1016300008432168C86100206062012084F820000E
:10164000002070BD41F08001C0E741F04001C5E7D6
:1016500041F02001CAE721F01001CFE741F0080175
:10166000D4E741F00401D9E7F0B587B0044614216E
:101670006846FEF763FE3E4B3E48DFF8F0E019682F
:10168000D4F800C03B4A0325022609271030002465
:10169000491CF4452AD11960012907D1016841F09C
:1016A00000710160006800F000700590106840F063
:1016B000080010601068CDE9005600F00800CDE980
:1016C000047069462C48CDE9024500F015FC002263
:1016D0000521142000F0DAFD142000F0C9FD0022DD
:1016E0000521152000F0D2FD15203BE0DFF88CE04D
:1016F000F44539D1D0F800C04CF0806CC0F800C07F
:10170000D0F800C001290CF0806CCDF814C019602D
:1017100007D1016841F000710160006800F00070BD
:101720000590106840F002001060106802AB00F0F5
:10173000020005904FF44050CDE9000683E8B00068
:1017400069460F4800F0D8FB00220521402000F038
:101750009DFD402000F08CFD00220521412000F07D
:1017600095FD412000F084FD07B0F0BD006400400D
:101770003800002030380240000C02400068004071
:10178000000402407047000000B589B06B4602AA11
:101790000021FFF764FDC849F7EE000ADFEDC71A24
:1017A0009FEDC72A9FEDC71A029AC748A2F20122ED
:1017B000052A7CD2DFE802F0034A99E5FE00D0ED6D
:1017C000002AC0ED012ABDF8002052BA12B200EE84
:1017D000102AB8EEC00A80ED000ABDF8022070EEB3
:1017E000622A52BA12B203EE102AB8EEC33A80ED62
:1017F000023ABDF8042052BA12B203EE102AB8EE33
:10180000C33A80ED033A9DF806200274B0EEE23A46
:1018100013EE102AC0ED052A8A4202DCD0ED070A39
:101820000DE0F5EEC02AF1EE10FAD0ED072A02DD48
:1018300072EEE00A01E072EEA00AC0ED070A00EEC7
:10184000A10A80ED060A20EE020A30E1D0ED092A55
:10185000C0ED0A2ABDF8002052BA12B200EE102ADA
:10186000B8EEC00A80ED090ABDF8022070EE622AC7
:1018700052BA12B203EE102AB8EEC33A80ED0B3A18
:10188000BDF8042052BA12B203EE102AB8EEC33AE1
:1018900080ED0C3A9DF8062080F83420B0EEE23A54
:1018A00013EE102AC0ED0E2A8A4204DC00E01AE092
:1018B000D0ED100A0DE0F5EEC02AF1EE10FAD0EDF1
:1018C000102A02DD72EEE00A01E072EEA00AC0ED1D
:1018D000100A00EEA10A80ED0F0A20EE020A20EEA7
:1018E000010A80ED110A09B000BDD0ED122AC0ED49
:1018F000132ABDF8002052BA12B200EE102AB8EE38
:10190000C00A80ED120ABDF8022070EE622A52BAB7
:1019100012B203EE102AB8EEC33A80ED143ABDF8C5
:10192000042052BA12B203EE102AB8EEC33A80ED88
:10193000153A9DF8062080F85820B0EEE23A13EEF2
:10194000102AC0ED172A8A4202DCD0ED190A0DE0F8
:10195000F5EEC02AF1EE10FAD0ED192A02DD72EE92
:10196000E00A01E072EEA00AC0ED190A00EEA10A39
:1019700080ED180A20EE020A20EE010A80ED1A0A14
:10198000B1E7D0ED1B2AC0ED1C2ABDF8002052BAE9
:1019900012B200EE102AB8EEC00A80ED1B0ABDF8A4
:1019A000022052BA12B203EE102AB8EEC33A80ED0A
:1019B0001D3A00E033E0BDF8042070EE622A52BA0E
:1019C00012B203EE102AB8EEC33A80ED1E3A9DF82B
:1019D000062080F87C20B0EEE23A13EE102AC0ED2B
:1019E000202A8A4202DCD0ED220A0DE0F5EEC02A60
:1019F000F1EE10FAD0ED222A02DD72EEE00A01E0EB
:101A000072EEA00AC0ED220A00EEA10A80ED210AC2
:101A100020EE020A20EE010A80ED230A63E72A483D
:101A2000903090ED000A80ED010ABDF8002052BA16
:101A300012B202EE902AF8EEE22AC0ED002ABDF8BA
:101A4000022032EEC00A52BA12B203EE102AB8EEE9
:101A5000C33A80ED023ABDF8042052BA12B203EE46
:101A6000102AB8EEC33A80ED033A9DF806200274BE
:101A7000B0EEC03A13EE102A80ED050A8A4202DC6D
:101A800090ED070A0DE0B5EEC00AF1EE10FA90ED08
:101A9000070A02DD30EE600A01E030EE200A80ED38
:101AA000070A40EE212AC0ED062A22EE820A20EE25
:101AB000010A80ED080A16E700C8CC450000004680
:101AC000000000390000B443E06B0020704770470D
:101AD0007047000070B5044690F82000012804D03B
:101AE000606A40F40020606218E0022084F8200060
:101AF0002068016821F00101016000F029FB054622
:101B00000EE000BF00F024FB401B0A2808D9606AE1
:101B100040F400306062052084F82000012070BD90
:101B200020684068C007EDD1606270BD70477047A3
:101B3000704770477047704770472DE9F041044681
:101B4000876D00F005FB064694F835000025022855
:101B500006D08020606584F834500120BDE8F08113
:101B60002068016821F0160101602068416921F0B8
:101B700080014161206C08B9A06C20B12068016827
:101B800021F0080101602068016821F00101016075
:101B90000CE000F0DDFA801B052807D920206065E5
:101BA000032084F8350084F83450D7E720680068B3
:101BB000C007EED194F85C103F208840B860012047
:101BC00084F8350084F834500020C7E790F83510C9
:101BD000022903D08021416501207047052180F84A
:101BE00035100068016821F0010101600020704794
:101BF0002DE9F84304464FF00009CDF80090634802
:101C00004FF41651A56D0068B0FBF1F72E6894F8FB
:101C10005C10082000FA01F131420FD021680A68F7
:101C200052070BD50A6822F004020A6094F85C108F
:101C30008840A860606D40F00100606594F85C1019
:101C40004FF0010808FA01F0304208D021684969D4
:101C5000090604D5A860606D40F00200606594F844
:101C60005C1004208840304208D021680968890748
:101C700004D5A860606D40F00400606594F85C10C5
:101C800010208840304218D021680968090714D50F
:101C9000A86020680168490304D50068000308D5DE
:101CA000A16C07E00168C90503D4016821F00801AF
:101CB0000160216C09B12046884794F85C1020200F
:101CC0008840304231D021680968C9062DD5A86006
:101CD00094F8350005282068016806D0490347D5E7
:101CE000006800031DD4616C1CE021F01601016046
:101CF0002068416921F080014161206C08B9A06C25
:101D000020B12068016821F00801016094F85C109E
:101D10003F208840A86084F8358084F83490216D95
:101D20001FE0E16B09B120468847606D00282BD089
:101D3000606DC00714D0052084F835002068016864
:101D400021F0010101600098401C0090B84203D8C6
:101D500020680068C007F6D184F8358084F8349094
:101D6000E16C002910D001B02046BDE8F0430847DF
:101D70000168C905D5D4016821F01001016084F81B
:101D8000358084F83490CCE7BDE8F883AC000020BF
:101D90002DE9F041044600F0DBF906465CB1022073
:101DA00084F83500002584F834502068016821F05B
:101DB000010101600DE00120BDE8F08100F0C8F9EB
:101DC000801B052805D920206065032084F8350094
:101DD000F2E720680068C007F0D122681168204847
:101DE0000140D4E901031843D4E9033633431843CF
:101DF00063691843A3691843E3691843236A1843C6
:101E00000843616A042903D1D4E90B131943084339
:101E1000106020684069666A20F0070130460E4372
:101E2000012704280CD1A06A0643E06A40B120468D
:101E3000FFF74EF820B14020606584F83570BAE7AE
:101E4000206846612046FFF72FF894F85C203F2178
:101E500091408160656584F835700020ACE7000032
:101E60003F8010F02DE9F0410446866D90F8340073
:101E7000002501280DD0012084F8340094F8357035
:101E80000020012F07D084F8340002252846BDE841
:101E9000F0810220FBE7022784F835706065204658
:101EA000FFF740F894F85C103F208840B06020684D
:101EB000016841F016010160206C20B120680168C2
:101EC00041F0080101602068016841F001010160F2
:101ED000DCE7000070B5044600F03AF90546601CE6
:101EE00002D004480078044400F032F9401BA042BC
:101EF000FAD370BDA00000202DE9F84FDFF8F8A15B
:101F00000022012403254FF00F090AF1040BAAF166
:101F1000040E00BF0B6804FA02F63340B34270D1DE
:101F20000F7907F00307012F01D0022F16D1876820
:101F30004FEA420805FA08FC27EA0C07D1F80CC062
:101F40000CFA08FC4CEA070CC0F808C04768B74315
:101F50000E79C6F3001696403E4346600E79F6436E
:101F6000B6070AD0C7684FEA420C05FA0CF6B74329
:101F70008E6806FA0CF63E43C6600E7906F003063C
:101F8000022E10D1D60800EB8608D8F8206057073B
:101F90004FEAD76C09FA0CF7BE430F6907FA0CF742
:101FA0003743C8F8207006684FEA420C05FA0CF770
:101FB000BE430F7907F0030707FA0CF737430760B2
:101FC0004E6816F4403F1CD04C4E376847F48047AB
:101FD0003760366822F0030706F480460096484EC4
:101FE00007EB060CDCF8086897073F0F09FA07F8BB
:101FF00026EA0806DFF80C81404503D14FF00008BF
:1020000041E072E0DFF80081404502D14FF0010865
:1020100039E0DFF8F880404502D14FF0020832E0A5
:10202000DFF8EC80404502D14FF003082BE0DFF8E9
:10203000E480404502D14FF0040824E0DFF8D88066
:10204000404502D14FF005081DE0DFF8D080404543
:1020500002D14FF0060816E0DFF8C480404502D1F7
:102060004FF007080FE0DFF8BC80404502D14FF089
:10207000080808E0DFF8B080404502D14FF00908B9
:1020800001E04FF00A0808FA07F848EA0608CCF819
:102090000888DAF800605746D1F804C09E435FEA2A
:1020A000CC2C00D51E433E60DBF800605F46D1F8C3
:1020B00004C09E435FEA8C2C00D51E433E60DEF8D0
:1020C00000607746D1F804C09E435FEA8C3C00D59F
:1020D0001E433E60084F083F3E68D1F804C09E434F
:1020E0005FEACC3C00D51E433E60521C102AFFF430
:1020F00011AFBDE8F88F0000083C014044380240B1
:10210000003001400000024000040240000802408C
:10211000000C02400010024000140240001802406F
:10212000001C0240002002400024024000690840D8
:1021300000D001207047426921EA02030A4043EAC5
:102140000241816170470AB1816170470904FBE770
:102150000148806870470000A000002002488168A4
:102160000278114481607047A00000200B4810B530
:10217000016841F400710160016841F4806101600F
:10218000016841F480710160032000F09FF80F2086
:1021900000F006F800F050F8002010BD003C0240AE
:1021A00030B505461F4887B00024016841F0200182
:1021B0000160006806A900F02000009001A800F06E
:1021C0005BFE0498A8B100F07DFE40001649174A56
:1021D000B0FBF1F11648491E026040F2E732C0E957
:1021E0000324C0E90114846101F0E8F8040003D07D
:1021F00015E000F067FEE9E70D4801F03DF9040045
:102200000DD1372000F034F8102D07D200222946D6
:10221000372000F03BF80748056000E0012407B0D4
:10222000204630BD4038024040420F0000140040BC
:10223000B4060020A40000200C4882B0016841F4DC
:1022400080410160006800F4804000900748001F52
:10225000016841F0805101600068002200F0805068
:1022600000900F21901E02B000F010B844380240D8
:10227000002809DB00F01F02012191404009800085
:1022800000F1E020C0F8001170470000F0B40E4BE0
:102290001B680C46C3F30223C3F10705042D00D9C4
:1022A0000425191D072901D2002300E0DB1E0126A9
:1022B00006FA05F1491E214099409E40761E1640BF
:1022C0003143F0BC05F036BB0CED00E0064900F0F0
:1022D000070208684FF6FF03184040EA0220034A4D
:1022E00010430860704700000CED00E00000FA05A4
:1022F00070470068416200207047F0B50368586A73
:1023000039B19C6A4FF4827600EB144400204D1ED4
:102310000AE040EA024098620FE006EB8007DF59CE
:10232000401C04EB1744C0B2A842F6D344EA024072
:102330004FF4807202EB810158500020F0BDD0F8BC
:10234000E00404F0E8B801EBC10200EB8202D0F82F
:10235000E004126A04F03DB801EBC10200EB820216
:10236000D0F8E004D2F8602204F08EB8D0F8E0048F
:1023700004F0D3B80A0601F00F0101EBC10100EB34
:10238000810101D5143101E001F51571006804F0F7
:10239000AFBF70B504460B0601F00F0000EBC001A3
:1023A00004EB81014FF001024FF0000502D54A75A0
:1023B000143103E081F8555201F51571087094F855
:1023C0009404012808D084F89424206804F0AAFC1E
:1023D00084F89454002070BD022070BD70B504468E
:1023E00001F00F002279904201D9012070BD0B0647
:1023F00001F00F0101EBC10104EB81014FF001027B
:102400004FF0000502D54A75143103E081F85552AA
:1024100001F515718D70087094F89404012808D0A6
:1024200084F89424206804F0EFFD84F8945400208C
:1024300070BD022070BD01F00F0101EBC10100EB86
:102440008100D0F8680270472DE9F04104460F067C
:1024500001F00F0000EBC00104EB81014FF0010619
:102460004FF0000502D54E75143103E081F8555246
:1024700001F51571C2F30A0208708A600B714A787F
:1024800002B14883022B00D14D7194F894040128C5
:1024900009D084F89464206804F096FB284684F8F8
:1024A0009454BDE8F0810220FBE710B501F00F0461
:1024B00004EBC40100EB8101C1E998230023C1F8BA
:1024C000683281F8553281F85442837901F51571EB
:1024D000012B00D1CA618279006804F0EDFD002073
:1024E00010BD70B504460D4601F00F0021798842F9
:1024F00001D9012070BD29064FF000064FF00102FE
:1025000006D500EBC00104EB81014A75143107E0E8
:1025100005EBC50104EB810181F8556201F51571E8
:102520008A70087094F89404012807D084F89424E1
:10253000206804F095FD280702D007E0022070BD56
:10254000A17904F29C42206804F032FD84F894647E
:10255000002070BD10B501F00F0404EBC40100EBC6
:102560008101C1E9082300238B6201234B7501F827
:10257000144F8379012B00D1CA618279006804F07D
:102580009BFD002010BD00002DE9FC5F056804469E
:10259000284604F049FF00287DD1206804F070FF30
:1025A000002878D0D5F80808C0F30D20C4F8D4046A
:1025B000206804F065FF800704D52068416901F0B8
:1025C00002014161206804F05BFFC10604F29C40F7
:1025D000009034D52068816921F0100181612F6A53
:1025E00007F00F0000EBC00004EB8006C7F3434088
:1025F00006F51576022802D0062811D01AE047F613
:10260000F070074216D0C7F30A1217462846F16841
:1026100004F03AFFF0683844F0607069384408E02C
:1026200008222846009904F02FFF7069C7F30A11A9
:10263000084470612068816941F01001816120685F
:1026400004F01EFF00034FF0080B4FF0000A4FF09C
:1026500001097CD50026206804F0F1FE074674E0ED
:10266000F80770D0F1B2206804F002FF8046C0077E
:1026700007D005EB4611C1F8089B3146204602F011
:1026800057FB5FEA087024D505EB4611C1F808BB7B
:102690002068016C00E023E200EB46100191D0F8C5
:1026A000082BFB4B994205D9110403D54FF4004187
:1026B000C0F8081B204600F004FBF5490198884249
:1026C00007D9A079012804D120680121009A04F0DB
:1026D0006FFC5FEAC86004D505EB46111020C1F815
:1026E000080B5FEA88701DD56869000605D5D5F826
:1026F000040840F48061C5F8041806EBC60004EB3A
:10270000800090F8571200F51570012905D180F866
:1027100003A0F1B2204600F0E9F905EB46110220D2
:10272000C1F8080B5FEA886004D505EB461020214C
:10273000C0F8081B5FEA884005D505EB46104FF44A
:102740000051C0F8081B7F08761C002F88D1206834
:1027500004F096FE40036ED5206804F069FE07463B
:10276000002666E0F80762D0F1B2206804F06EFE41
:102770008046C00723D006F00F01D5F8342809FAA7
:1027800001F18A43C5F8342805EB4611C1F80899D0
:10279000A07901280FD106EBC60004EB8000D0E938
:1027A00007211144016236B9606A20B9206801210D
:1027B000009A04F0FDFBF1B22046FFF7C4FD5FEA8A
:1027C000087003D505EB4611C1F808B95FEAC86087
:1027D00004D505EB46111020C1F808095FEA4860EE
:1027E00004D505EB46104021C0F808195FEA88704F
:1027F00016D53146284604F0ECFD06EBC60004EB86
:102800008000C17D1430012905D180F803A0F1B208
:10281000204600F067F905EB46110220C1F80809CF
:102820005FEA086003D53146204602F0E7FA7F08E8
:10283000761C002F96D1206804F022FE002811DAC1
:10284000D5F8040820F00101C5F8041894F8CC0468
:1028500001282BD0204600F019FA2068416901F0C8
:1028600000414161206804F00BFE00050BD5D5F84E
:102870000808C00702D0204600F04CFA20684169E1
:1028800001F400614161206804F0FAFDC00467D5DD
:10289000D5F8040820F00100C5F8040810212068CC
:1028A00004F097FD00214FF67F3220E084F8CCA49D
:1028B00000212046FFF71CFDCFE700BF05EB4110CC
:1028C000C0F80829D0F8003923F40013C0F8003903
:1028D000C0F8082BD0F8003B23F40013C0F8003BED
:1028E000D0F8003B43F00063C0F8003B491C20795E
:1028F0008842E3D8D5F81C0840F00111C5F81C182F
:10290000E07B002828460DD0D0F8840840F00B0169
:10291000C5F88418D5F8440840F00B012846C5F8DE
:1029200044180DE0D0F8140842F22B010843C5F812
:102930001408D5F8100840F00B012846C5F8101807
:10294000D0F8000820F4FE61C5F80018A1792068CD
:10295000009A04F02DFB2068416901F48051416127
:10296000206804F08DFD800415D5206804F06CF912
:10297000206804F04CFDE07100F09EFA0146E27917
:10298000206804F0DFFD204600F06AF92068416904
:1029900001F400514161206804F072FD000707D581
:1029A000204600F077F92068416901F00801416193
:1029B000206804F065FD000616D5A86920F08001A6
:1029C000A96101260DE000BF06EBC60004EB800004
:1029D00090F85702012803D1F1B22046FFF7CAFC54
:1029E000761C2079B042EFD8206804F049FDC0027F
:1029F0001FD501264F4614E005EB4610D0F800190C
:102A000006EBC60004EB8002107E012808D10029E5
:102A100006DAF0B240F08001D7752046FFF7AAFC35
:102A2000761C2079B042E7D82068416901F4801112
:102A30004161206804F024FD800234D501204A461B
:102A400029E000BF05EB4011D1F8001B00EBC003EB
:102A500004EB830393F85862012E1BD1002919DA85
:102A600094F8D46401F4803106F00106B14211D12A
:102A700083F85722A96941F08003AB6169690906AF
:102A800008D4D5F8040840F40070C5F8040805E03F
:102A90000A30544F401C21798142D3D820684169C3
:102AA00001F400114161206804F0EAFC400007D500
:102AB0002046FFF744FC2068416901F080414161F4
:102AC000206804F0DDFC40070AD5206845686807E7
:102AD00002D52046FFF74AFC20684168294341603F
:102AE000BDE8FC9FD0F8E00403F069BDD0F8E00435
:102AF00003F079BDF8B5040005D094F89504266874
:102B0000002510B106E00120F8BD84F89454204659
:102B100000F056F8032084F89504B6F1A04F00D1D8
:102B2000A571206804F03EFA207C8DF8000094E83E
:102B30000F0004F097F80226B8BB0021206804F0CB
:102B4000C2FC90BB002001270DE000BF00EBC001DC
:102B500004EB81014F750875C8850D76CD610D6256
:102B6000401CC0B24D6221798142EFD8002011E0B3
:102B700000EBC00104EB810181F8555281F8540249
:102B800081F85852C1F85C52C1F86052401CC0B282
:102B9000C1F8645221798142EAD8207C8DF8000086
:102BA00094E80F0004F040F910B184F89564AAE7A6
:102BB000657484F89574206804F028F90020F8BD45
:102BC0002DE9F04186B0044614216846FDF7B6FBB6
:102BD0002068B0F1A04F3BD11F484FF000080168BA
:102BE00041F0010101600068022400F0010005903D
:102BF0004FF48050CDE9000402AA012003250A26E3
:102C000082E86100154F69463846FFF775F9A00262
:102C10008DE81101CDE9035669463846FFF76CF996
:102C20000D48001D016841F0800101600A48143020
:102C3000016841F4804101600068002200F4804096
:102C4000059005214320FFF721FB4320FFF710FBF0
:102C500006B0BDE8F08100003038024000000240BC
:102C600070B50446C079012570B1022801D0FEF785
:102C700095F92946D4F8E00403F023FDD4F8E004E4
:102C8000BDE8704003F0D8BC0025F2E7D0F8E004BE
:102C900003F000BDD0F8E00403F006BD10B5044613
:102CA00090F8940401280AD0012084F894046174F7
:102CB000206804F036FC002084F8940410BD022043
:102CC00010BDD0F8E02400F29C41104603F005BD91
:102CD00010B50446006894F89414012909D0012124
:102CE00084F89414C168490609D5617B012902D092
:102CF00005E0022010BD816B41F4803181632068C2
:102D000004F045FB206804F073F8002084F8940474
:102D100010BD000010B50446D0F8E00403F01FFD1C
:102D20002068D0F8001E41F00101C0F8001EE07AD2
:102D3000002804D00248016841F00601016010BD7E
:102D400010ED00E02DE9F0470E46050065D0DFF8F4
:102D50001481D8F80000F7B200F00F00B04207D29B
:102D600088F80070D8F8000000F00F00B04254D18D
:102D700028683D4C810712D5400703D5206840F4F0
:102D8000E05020602878000703D5206840F46040B8
:102D900020602068A96820F0F000084320602878AF
:102DA000C0072DD0304968680839012812D00228A0
:102DB00013D0032811D00968890700292DDA21686A
:102DC00021F0030101432160FFF7C2F9814641F27E
:102DD000883A0EE009688903EFE709688901ECE7A2
:102DE000FFF7B6F9A0EB0901514502D90320BDE870
:102DF000F0872068696800F00C00B0EB810FEFD11C
:102E0000D8F80010404601F00F01B14207D9077011
:102E1000006800F00F00B04201D00120E7E72878F9
:102E2000400705D52068E96820F4E0500843206099
:102E30002878000706D52068296920F4604040EA18
:102E4000C100206000F05EF82168084AC1F3031158
:102E5000515CC8400649086006480068FFF7A0F9C1
:102E60000020C4E7003C02400838024094A2000859
:102E7000AC000020A40000200F2202600C4A13685E
:102E800003F003034360136803F0F00383601368E7
:102E900003F4E053C36012684FF4E05303EAD20234
:102EA00002610448006800F00F00086070470000ED
:102EB00008380240003C02400148006870470000AA
:102EC000AC0000200448054900680968044AC1F3C1
:102ED0008221515CC8407047AC0000200838024095
:102EE000A4A200080448054900680968044AC1F31F
:102EF0004231515CC8407047AC00002008380240A5
:102F0000A4A20008154810B5006810F00C0214487F
:102F100013D01449042A0FD0082A0ED10F4C241FB5
:102F20002268236802F03F025B0207D52068C0F3E5
:102F30008810A0FB010106E0084610BD2168C1F31E
:102F40008811A1FB00010023FDF7AEF92168C1F350
:102F50000141491C4900B0FBF1F010BD08380240A6
:102F60000024F400001BB7002DE9F84F04006ED0D8
:102F70002078DFF84C93C007A9F104054AD009F185
:102F800004000168C1F38101012908D00068C0F381
:102F9000810002280AD1D9F80000400206D528682D
:102FA000800337D560680028E1D033E06068B0F571
:102FB000803F10D0B0F5A02F286810D020F48030CA
:102FC0002860286820F4802028606068A8B1FFF796
:102FD000BFF806460DE0286840F48030F4E740F47E
:102FE00080202860F7E700BFFFF7B2F8801B642855
:102FF00073D828688003F7D50CE0FFF7A9F80646D8
:1030000005E000BFFFF7A4F8801B6428F0D828680B
:103010008003F7D42078DFF8AC8280074FF0000AF5
:103020003ED5A748001D016811F00C0F08D00068BC
:10303000C0F3810002280BD1D9F80000400207D468
:103040002868800716D5E068012800D112E033E136
:10305000E068B8B10120C8F80000FFF779F806462B
:1030600005E000BFFFF774F8801B0228C0D828686D
:103070008007F7D52868216920F0F80040EAC100F0
:1030800028600DE0C8F800A0FFF762F8064604E0EB
:10309000FFF75EF8801B02281FD828688007F7D446
:1030A0002078000722D5864F87486169703771B153
:1030B00001210160FFF74CF8064604E0FFF748F8ED
:1030C000801B022809D838688007F7D50EE0C0F8C1
:1030D00000A0FFF73DF8064605E082E0FFF738F86C
:1030E000801B02287DD838688007F7D420784007F5
:1030F00068D5DFF8CCB100270BF13C0BDBF8000002
:10310000C0000BD4DBF8001041F08051CBF8001068
:10311000DBF80000012700F0805000906B4E306813
:10312000C00510D4306840F480703060FFF710F8AC
:10313000009005E0FFF70CF80099401A022850D8DB
:103140003068C005F6D55E4EA0686C3601280FD0F9
:103150000528306810D020F001003060306820F081
:1031600004003060A068B8B1FEF7F2FF00900FE0F5
:10317000306840F00100F4E740F004003060F7E709
:10318000FEF7E6FF0099411A41F28830814266D885
:1031900030688007F4D50EE0FEF7DAFF009007E014
:1031A000FEF7D6FF0099411A41F28830814256D885
:1031B00030688007F4D42FB1DBF8001021F0805183
:1031C000CBF80010A069C8B33D49091D0968C1F3D7
:1031D000810102294AD00228504607D0C8F8600071
:1031E00000E03CE0FEF7B4FF04463BE04746C8F889
:1031F0006000FEF7ADFF064605E000BFFEF7A8FF42
:10320000801B02282BD828688001F7D4D4E9070155
:103210000843A16A2E4A490802EB0141626A41EA69
:103220008211084394F82C1040EA0161C9F800109B
:1032300001203866FEF78CFF044606E03EE000BF42
:10324000FEF786FF001B022809D828688001F7D501
:1032500034E000BFFEF77CFF001B022802D90320E8
:10326000BDE8F88F28688001F4D427E00128F7D062
:10327000D9F80000E26900F4800191421CD1226A71
:1032800000F03F01914217D147F6C071626A0140D8
:10329000B1EB821F10D1A26A4FF0FF3300F440312E
:1032A00003EB5202B1EB024F06D194F82C1000F060
:1032B0007060B0EB016F01D00120D1E70020CFE7B3
:1032C0000438024000004742800E47420070004030
:1032D0000000FFFF7047704710B590F83C20012AAE
:1032E00022D0012280F83C20CA688C6822F4407207
:1032F00022434C6822F4806222430C6822F400626C
:1033000022430C6922F4805222434C6922F4005279
:103310002243C969002322F480420A4301684A64B7
:1033200080F83C30002010BD022010BD70B590F830
:103330003C20012A32D0012480F83C40022280F84F
:103340003D2003685A689D6822F070060A6832437F
:103350005A60134B02689A4214D0B2F1804F11D0D8
:10336000104B9A420ED0104B9A420BD00F4B9A4200
:1033700008D00F4B9A4205D00E4B9A4202D00E4B0A
:103380009A4204D1496825F080031943916080F87E
:103390003D40002180F83C10084670BD022070BD01
:1033A000000001400004004000080040000C004004
:1033B00000040140004001400018004010B5040026
:1033C00003D094F83D0010B107E0012010BD0020AB
:1033D00084F83C00204600F01FF8022084F83D00ED
:1033E000211D206801F0ACFF012084F8460084F81C
:1033F0003E0084F83F0084F8400084F8410084F8DF
:10340000420084F8430084F8440084F8450084F8BE
:103410003D00002010BD000008B5134A01681348A4
:10342000914207D1016841F004010160006800F099
:10343000040009E00E4A914208D1016841F00801F8
:103440000160006800F00800009008BD0948814252
:10345000FBD10648001D016841F0020101600068CF
:1034600000F00200F0E70000000800404038024091
:10347000000C00400004014090F83D10012901D0EB
:1034800001207047022180F83D100168CA6842F0AF
:103490000102CA6000681149884214D0B0F1804F1F
:1034A00011D00F4988420ED00E4988420BD00E49E8
:1034B000884208D00D49884205D00D49884202D083
:1034C0000C49884204D1816801F00701062903D024
:1034D000016841F0010101600020704700000140D7
:1034E0000004004000080040000C004000040140BF
:1034F000004001400018004070B5044690F83C00C0
:103500000025012817D0012684F83C60022084F8A9
:103510003D002068826822F0770222F47F428260B8
:103520000868502838D00DDC20284FD005DC90B337
:10353000102811D14AE0022070BD302846D0402822
:103540000AD13BE060282FD070280DD0B0F5805F05
:1035500003D0B0F5005F12D0012584F83D60002053
:1035600084F83C00284670BDCB68D1E90121206871
:1035700001F05FFF2068816841F0770109E0CB68C6
:10358000D1E90121206801F054FF2068816841F4ED
:1035900080418160E1E719E0CA684968206802F06B
:1035A0001DF85021206806E0CA684968206802F0CA
:1035B00026F86021206801F046FFCEE7CA68496816
:1035C000206802F00BF840212068F4E722680146E9
:1035D0001046F0E770472DE9F04104460068C668E0
:1035E00005694FF00007A90713D5B10711D5F91EDA
:1035F000016101202077206880698007204602D081
:10360000FFF7E8FF04E000F0D3F8204600F065F98A
:103610002777680716D5700714D521686FF0040066
:103620000861022020772068806910F4407F2046DE
:1036300002D0FFF7CFFF04E000F0BAF8204600F018
:103640004CF92777280715D5300713D521686FF077
:1036500008000861042020772068C06980072046A0
:1036600002D0FFF7B7FF04E000F0A2F8204600F018
:1036700034F92777E80616D5F00614D521686FF0DF
:1036800010000861082020772068C06910F4407F8E
:10369000204602D0FFF79EFF04E000F089F82046A4
:1036A00000F01BF92777E80708D0F00706D021685B
:1036B0006FF001000861204600F074F9280608D573
:1036C000300606D521686FF0800008612046FFF7BC
:1036D00001FE680608D5700606D521686FF0400027
:1036E0000861204600F068F9A8060AD5B00608D59A
:1036F00021686FF0200008612046BDE8F041FFF727
:10370000EABDBDE8F081000030B587B00446142161
:103710006846FCF713FE2048236800221F49022454
:1037200083420ED1086840F008000860086800F085
:103730000800059088140090CDE9014269461848B8
:1037400010E0184D1848AB4212D10B6843F4807357
:103750000B60096801F48071059101210091CDE9A8
:1037600001426946CDE90324FEF7C6FB07B030BD30
:103770000E4DAB42FAD10B6843F480730B600968BD
:1037800001F48071059104210091CDE901420321EA
:10379000CDE903216946E7E70008004030380240E0
:1037A000000C0240000C00400020024000040140D8
:1037B000704770B5044690F83C0000260D4601287D
:1037C0000FD0012084F83C006AB1042A1DD0082AD9
:1037D0002FD00C2A3FD00126002084F83C00304630
:1037E00070BD022070BD206801F036FE206881693E
:1037F00041F0080181612068816921F00401816143
:10380000206881692A69114311E0206801F054FEA3
:103810002068816941F4006181612068816921F437
:1038200080618161206881692A6941EA02218161A0
:10383000D2E7206801F076FE2068C16941F00801F6
:10384000C1612068C16921F00401C1612068C169BA
:103850002A69114311E0206801F098FE2068C169CF
:1038600041F40061C1612068C16921F48061C161D6
:103870002068C1692A6941EA0221C161ACE710B53B
:10388000040003D094F83D0010B107E0012010BD02
:10389000002084F83C00204600F01EF8022084F846
:1038A0003D00211D206801F04BFD012084F84600F9
:1038B00084F83E0084F83F0084F8400084F841001A
:1038C00084F8420084F8430084F8440084F84500FA
:1038D00084F83D00002010BD7047704710B50446C5
:1038E000022249B104290ED0082913D094F84100CE
:1038F000012816D0012010BD94F83E000128F9D10E
:1039000084F83E200FE094F83F000128F2D184F8BB
:103910003F2008E094F840000128EBD184F84020D3
:1039200001E084F841200122206801F075FD16496C
:103930002068164A884201D0904203D1436C43F478
:10394000004343642068884213D0B0F1804F10D008
:103950000F4988420DD00F4988420AD00E4988424B
:1039600007D0904205D00D49884202D00C498842C8
:1039700004D1816801F00701062903D0016841F0F4
:1039800001010160002010BD000001400004014061
:103990000004004000080040000C004000400140CE
:1039A0000018004000680349884201D1FEF7D6BBE9
:1039B0007047000000140040704738B5044690F886
:1039C0004200202801D0022038BD61B15AB1012047
:1039D000206300206063204601F0CCFF0028F3D173
:1039E000216B012901D0012038BD21680A6849688E
:1039F000009121680C3151E8002F42F0100241E89B
:103A00000023002BF5D138BD124910B5884220D1D2
:103A1000114803F0E5FE03F09DFE002003F008FFCF
:103A20000D4C01200C3484ED000A03F001FF84EDFD
:103A3000010A022003F0FCFE84ED020A0B22064973
:103A40000448FFF7BAFF05480068016821F0080143
:103A5000016010BD70030020DC6C0020D404002045
:103A600070470000F8B5016804460868CA684B69E9
:103A700010F00F0F4FF0000559D003F0010602F4CB
:103A80009077374365D0C10705D0D10503D5616C68
:103A900041F001016164410705D5D90703D0616C8C
:103AA00041F002016164810705D5D90703D0616C3B
:103AB00041F004016164010707D502F020013143A0
:103AC00003D0616C41F008016164616C00293AD057
:103AD000800604D5900602D5204601F063FE2068DA
:103AE0004069616CC0F38010090700D460B32046C0
:103AF00001F023FE20684069400621D5206814307B
:103B000050E8001F21F0400140E80012002AF5D1E2
:103B1000E06BA8B16E490165E06BFEF757F800282D
:103B200011D0E06B016D01B0BDE8F040084783069D
:103B30000FD593060DD52046BDE8F84001F032BE02
:103B40002046FFF78DFFF8BD2046FFF789FF65642B
:103B5000F8BD266B2023012E7DD1C6067BD5D60667
:103B600079D508684868009048694FF00206400619
:103B700041D5E16B086840680004000CE8D0A28DD4
:103B80008242E5D9E085C869B0F5807F2DD02068F4
:103B90000C3050E8001F21F4807140E80012002A28
:103BA000F5D12068143050E8001F21F0010140E8F1
:103BB0000012002AF5D12068143050E8001F21F0CF
:103BC000400140E80012002AF5D184F84230256314
:103BD00020680C3050E8001F21F0100140E800126E
:103BE000002AF5D1E06BFDF7A8FF6663A08DE18D9B
:103BF000401A81B22AE0A08DE18D401A81B2E08D99
:103C00000028A5D00029A3D022680C3252E8000F6A
:103C100020F4907042E80007002FF5D1206814309E
:103C200050E8002F22F0010240E80027002FF5D1D4
:103C300084F84230256320680C3050E8002F22F0D1
:103C4000100240E80023002BF5D166632046FFF701
:103C5000DBFEF8BDFFE705062BD5150629D594F840
:103C600041002128F5D1A068B0F5805F01D120691D
:103C7000B0B1206A411C2162216800784860E08C64
:103C8000401E0004000CE084E3D12068C16821F0EC
:103C90008001C1602068C16841F04001C160D8E77F
:103CA000206A0088C0F308004860206A801C2062F7
:103CB000E5E74006CDD55006CBD5CA68204622F0B0
:103CC0004002CA6084F8413000F0D7F9C1E7000033
:103CD0003D56000870B5040004D094F8410000255A
:103CE00010B106E0012070BD84F84050204600F07D
:103CF00023F8242084F841002068C16821F4005191
:103D0000C160204601F0B0FD2068016921F49041B6
:103D100001612068416921F02A0141612068C16880
:103D200041F40051C1606564202084F8410084F8AA
:103D300042006563002070BD2DE9F04F87B0054655
:103D400014216846FCF7FAFA8C48DFF82C82103808
:103D5000D5F800C08949022303220827DFF820B2E2
:103D6000002406154FF0400A4FF02069C4454BD19E
:103D7000D1F800C04CF0804CC1F800C0096801F0D7
:103D800080410591016841F01001016000686946B9
:103D900000F010000590D0018DE81900CDE903274F
:103DA0005846FEF7A9F8784F7648C8463860C7E904
:103DB0000194C7E903467C61BC61FC613C62384602
:103DC0007C62FDF7E5FF08B1FDF7E8F8EF63BD633E
:103DD0006D4F6C4860373038C7E903467C61BC6181
:103DE000FC613C627C6287E801053846FDF7D0FF44
:103DF00008B1FDF7D3F8AF63002205215220BD635F
:103E0000FEF744FA52204EE0DFF88081C4454FD1DE
:103E1000D1F800C04CF0004CC1F800C0096801F0B6
:103E200000410591016841F01001016000688DE8D2
:103E30001C0000F01000CDE904706946039258465A
:103E4000FEF75AF8504F4F48C03748303860C7E93E
:103E50000194C7E903467C61BC61FC613C62C846D1
:103E600038467C62FDF794FF08B1FDF797F8EF63E1
:103E7000BD63474F4348C7E903467C61BC61FC61B1
:103E80003C6248387C6287E801053846FDF780FFD0
:103E900008B1FDF783F8AF63002205215320BD630D
:103EA000FEF7F4F95320FEF7E3F907B0BDE8F08F11
:103EB0003249DFF8E080091DC44539D10F6847F069
:103EC00010070F60096801F010010591016841F0C9
:103ED000020101600068694600F002000590C02000
:103EE0008DE819000720CDE903202B48FEF704F8E0
:103EF000274F2A48603738604FF00060C7E9010457
:103F0000C7E903467C614FF44030BC61C7E9074014
:103F100038467C62FDF73CFF08B1FDF73FF8EF63E0
:103F2000002205212520BD63FEF7B0F92520BAE760
:103F30001B4DAC45B9D10D6845F020050D600968F1
:103F400001F020010591016841F040010160006825
:103F5000694600F0400005904FF484408DE8190058
:103F6000CDE903270F48FDF7C7FF002205214720B1
:103F7000FEF78CF9472096E7007800404038024071
:103F80000010024058600240D4040020007C004031
:103F9000F40500200010014000040240406402408B
:103FA000001401400018024090F84230202B01D04C
:103FB0000220704721B11AB10023036301F022BD32
:103FC0000120704700680349884201D1FCF7C0BF57
:103FD000704700000014014070472DE9F843044683
:103FE00090F84100984616460D46202802D002203F
:103FF000BDE8F88385B17EB100206064212084F89B
:104000004100FEF7A5F8A6848146E684A068202733
:10401000B0F5805F02D003E00120E9E7206910B12C
:104020002E4600250EE000260CE08021204601F0FF
:1040300004FDA8B9C6B116F8010B21684860E08CF0
:10404000401EE084E08C4B464FF00002CDF800802B
:104050000028EAD14FF04001204601F0EEFC40B1CB
:1040600084F841700320C3E735F8020BC0F3080061
:10407000E3E784F841700020BAE7704770B50400A8
:1040800004D094F83D00002510B106E0012070BD79
:1040900084F83C50204600F01BF8022084F83D00D4
:1040A000204601F00FFD2068016921F48041016183
:1040B0002068416921F02A0141612068C16841F40A
:1040C0000051C1602564012084F83D00002070BDCE
:1040D000F0B587B0044614216846FCF72FF91D4956
:1040E0002068884233D11C480024016841F48021B3
:1040F0000160006800F480200590174810380168BE
:1041000041F004010160016801F0040105910168BA
:1041100041F0080101600068022500F008000590E8
:104120004FF48050CDE9000502AA0326072782E854
:10413000D00069460948FDF7DFFE3002CDE90005F1
:1041400002AA694682E8D0000548FDF7D5FE07B00F
:10415000F0BD000000480040403802400008024026
:10416000000C0240FEE70000F0B500230A243025D1
:1041700037261F4611E000BFB4EB107F02D905EBD4
:10418000107C01E006EB107C01F813C001EB430C3E
:1041900000015B1C8CF80170DBB29342ECD3F0BDE4
:1041A0002DE9F04107461C4615460E462A2000F030
:1041B00007FA7F1CB8B200F0F8F96D1CA8B200F045
:1041C000F4F92B2000F0FCF9B61CB0B200F0EDF9C8
:1041D000A41CA0B200F0E9F9BDE8F0412C2000F0E9
:1041E000EFB910B514460B460246FFF7D9FF20463B
:1041F000BDE8104000F0D9B92DE9F04780461F46D0
:10420000581E83B21646501E82B20C464046DDF858
:104210002090FFF7C5FF0AE0454604E0484600F05D
:10422000C4F96D1CADB2B542F8D3641CA4B2BC4253
:10423000F2D3BDE8F087000010B57E4C002240218B
:104240002046FDF780FF6420FDF744FE0122402157
:104250002046FDF778FF6420FDF73CFE0122202177
:104260007548FDF770FF6420FDF734FE112000F063
:10427000A7F97820FDF72EFEB12000F0A1F9052066
:1042800000F0B2F93C2000F0AFF93C2000F0ACF9AE
:10429000B22000F095F9052000F0A6F93C2000F0CE
:1042A000A3F93C2000F0A0F9B32000F089F9052023
:1042B00000F09AF93C2000F097F93C2000F094F9C6
:1042C000052000F091F93C2000F08EF93C2000F030
:1042D0008BF9B42000F074F9032000F085F9C020B8
:1042E00000F06EF9282000F07FF9082000F07CF93A
:1042F000042000F079F9C12000F062F9C02000F03C
:1043000073F9C22000F05CF90D2000F06DF9002077
:1043100000F06AF9C32000F053F98D2000F064F931
:104320002A2000F061F9C42000F04AF98D2000F045
:104330005BF9EE2000F058F9C52000F041F91A2091
:1043400000F052F9362000F03BF9702000F04CF9F3
:10435000E02000F035F9042000F046F9222000F0BA
:1043600043F9072000F040F90A2000F03DF92E2023
:1043700000F03AF9302000F037F9252000F034F948
:104380002A2000F031F9282000F02EF9262000F034
:104390002BF92E2000F028F93A2000F025F9002012
:1043A00000F022F9012000F01FF9032000F01CF9B1
:1043B000132000F019F9E12000F002F9042000F0C8
:1043C00013F9162000F010F9062000F00DF90D2069
:1043D00000F00AF92D2000F007F9262000F004F97A
:1043E000232000F001F9272000F0FEF8272000F03C
:1043F000FBF8252000F0F8F82D2000F0F5F83B2020
:1044000000F0F2F8002000F0EFF8012000F0ECF8E6
:10441000042000F0E9F8132000F0E6F83A2000F05C
:10442000CFF8052000F0E0F8BDE81040292000F0AA
:10443000C7B8000000100240000002402DE9FF4F05
:1044400081B00546DDF83C9000904FEA59074FF0E7
:104450000008780700D0012000EBD70000FB09FB23
:10446000203AD0B20390029802994844401E83B289
:10447000E819401E82B22846FFF792FE002463E04E
:10448000B9F10C0F30D0B9F1100F34D0B9F1180FC9
:1044900034D0B9F1200F38D0B9F1300F3AD0B9F19A
:1044A000400F53D12C49039801EB0020002610F84F
:1044B00004A0109800284FF0010000FA06F000EA6E
:1044C0000A002CD020B12846049A0299FFF789FEF1
:1044D0006D1C0098ADB2281AB8422FD10298009DE9
:1044E000401C80B202902DE003981C4900EB400074
:1044F00001EB8000DAE71A49039803E003981949B1
:1045000000EB400001EB0010D0E71749039801EBE6
:104510008010CBE70398154900EBC000F2E708B123
:10452000049800E00E9800F040F808F10100C0B2D5
:10453000B0FBF7F1804607FB118050B1761CF6B254
:10454000082EB6D3641CA4B25C4599D305B0BDE86F
:10455000F08F4FF00008F5E7A4E40008C0A30008BE
:1045600034A8000824AE0008F4BF0008B4D700083F
:104570002DE9FE4F9946DDE90D6714468A4605464A
:10458000DDF830800CE0CDF800804B4651462846DF
:10459000CDE90167FFF752FF05EB560085B2641CB9
:1045A0002278002AEFD1BDE8FE8F10B50446000A3C
:1045B00000F01AF8E0B2BDE8104000F015B80000B5
:1045C00070B5084C0546002220212046FDF7BBFDB2
:1045D000284600F009F82046BDE87040012220215D
:1045E000FDF7B1BD001002402DE9F041144F054622
:1045F000002202213846FDF7A6FD124E00240022BB
:1046000008213046FDF79FFD280601D5012200E074
:10461000002204213046FDF796FD01220821304694
:10462000FDF791FD6806641C050EE4B2082CE6D384
:104630003846BDE8F04101220221FDF784BD0000AB
:1046400000140240000802400F4810B50D490160F7
:104650000621416000214FF400328160C0E903125D
:10466000120142610176012242768176C27601779B
:104670004177FCF76CFF002803D0BDE81040FCF741
:104680008DBC10BD00640040480200200F4810B5EA
:104690000D4901600621416000214FF40032816024
:1046A000C0E903121201426101760122427681764D
:1046B000C27601774177FCF74AFF002803D0BDE8B6
:1046C0001040FCF76BBC10BD006800407002002079
:1046D0001D4808B5016841F480010160016801F4DA
:1046E00080010091016841F400110160006800221E
:1046F00000F40010009005210B20FDF7C7FD0B20F2
:10470000FDF7B6FD002205210C20FDF7BFFD0C20B2
:10471000FDF7AEFD002205210E20FDF7B7FD0E20AE
:10472000FDF7A6FD002205211120FDF7AFFD1120A8
:10473000FDF79EFD002205213A20FDF7A7FDBDE80B
:1047400008403A20FDF794BD3038024010B51F4AAA
:1047500000211F4803F07CFF1E4C1C4A00212060F2
:1047600024321D4803F074FF184A6060483200216B
:104770001A4803F06DFF154AA0606C3200211848FA
:1047800003F066FF114AE06090320021154803F003
:104790005FFF0E4A2061B4320021134803F058FF36
:1047A0000A4A6061D8320021104803F051FF074ADD
:1047B000A061FC3200210E4803F04AFFE0610D4A7F
:1047C00000210D4803F044FF206210BD48A10008FD
:1047D000E551000814000020290C0008950A000883
:1047E000610C0008550C0008E50C0008410A00089F
:1047F000890A000868A20008EF0C00082DE9F04FB4
:1048000087B014216846FBF799FD624800240168CF
:1048100041F010010160016801F01001059101688B
:1048200041F040010160016801F04001059101681B
:1048300041F004010160016801F004010591016883
:1048400041F001010160016801F001010591016879
:1048500041F002010160016801F002010591016867
:1048600041F008010160016801F00801059101684B
:1048700041F480710160016801F480710591016863
:1048800041F080010160016801F08001059101683B
:1048900041F02001016000683F4E00F020000590CB
:1048A000002260213046FDF74EFCDFF8F090012237
:1048B00040214846FDF747FCDFF8E4A00022022132
:1048C0005046FDF740FCDFF8DCB040F2FF18002254
:1048D00041465846FDF737FC00222C213248FDF7AF
:1048E00032FC012210213048FDF72DFC602001250B
:1048F0000327CDE90005CDE9024769463046FDF7BB
:10490000FBFA8020CDE90004694648460294FDF791
:10491000F3FA4020CDE90005CDE902546946484646
:10492000FDF7EAFA022603970096CDE9015469469D
:104930005046FDF7E1FACDF80080CDE90154694613
:1049400058460394FDF7D8FA0C20CDE90005CDE9CF
:10495000024769461448FDF7CFFACDE9005469468D
:1049600012480296FDF7C8FA1020CDE90005CDE9FE
:10497000025669460C48FDF7BFFA2020009001AAB4
:10498000112082E8510069460748FDF7B5FA07B0E3
:10499000BDE8F08F30380240001002400020024095
:1049A00000140240001802400008024000000240CB
:1049B00010B58EB000240794089409940A940B94BF
:1049C0001C2168460C94FBF7B9FC1E481C49016089
:1049D0005321C0E901144FF6FF71C0E9031484614B
:1049E000FEF7ECFC08B1FCF7D9FA4FF480500790C1
:1049F00007A91448FEF780FD08B1FCF7CFFA11486B
:104A0000FEF73DFF08B1FCF7C9FA0B940BA90D485E
:104A10000C94FEF78BFC08B1FCF7C0FA6020CDE9DE
:104A2000000402940022694606480494FEF7C1FE81
:104A300008B1FCF7B3FA0348FEF766FE0EB010BDEE
:104A4000000800409802002010B58EB000240794A2
:104A5000089409940A940B941C2168460C94FBF763
:104A60006DFC1E481C4901605921C0E9011444F63F
:104A70001F61C0E903148461FEF7A0FC08B1FCF7D4
:104A80008DFA4FF48050079007A91448FEF734FDC3
:104A900008B1FCF783FA1148FEF7F1FE08B1FCF704
:104AA0007DFA0B940BA90D480C94FEF73FFC08B15E
:104AB000FCF774FA6020CDE9000402940C226946E8
:104AC00006480494FEF775FE08B1FCF767FA034840
:104AD000FEF71AFE0EB010BD000C0040E0020020F0
:104AE00010B596B000240F9410941194129413945E
:104AF0001C2108A81494FBF721FC20216846FBF731
:104B00001DFC284826490160A721C0E9011444F68C
:104B10001F61C0E9031444618461FEF74FFC08B1D2
:104B2000FCF73CFA4FF480500F900FA91D48FEF798
:104B3000E3FC08B1FCF732FA1A48FEF7A0FE08B110
:104B4000FCF72CFA139413A916481494FEF7EEFB05
:104B500008B1FCF723FA6020CDE908040A940C940C
:104B60000D940C2208A90F480E94FEF722FE08B1FE
:104B7000FCF714FA00944FF40050CDE9044002947D
:104B800001940394694607480794FEF7A5FB08B112
:104B9000FCF704FA0348FEF7B7FD16B010BD00009D
:104BA00000040140280300200C4810B50A490160A8
:104BB0004FF416514160002181600C22C160C0E9B0
:104BC00004128161C161FFF785F8002803D0BDE8B8
:104BD0001040FCF7E3B910BD0078004070030020DE
:104BE0000C4810B50A4901604FF4E13141600021E1
:104BF00081600C22C160C0E904128161C161FFF7CC
:104C000069F8002803D0BDE81040FCF7C7B910BD13
:104C1000007C0040B80300200D4810B50B4901602E
:104C20000C49416000214FF480628160C0E90312A9
:104C30000422C0E90521C161FFF74CF8002803D028
:104C4000BDE81040FCF7AAB910BD000000100140FB
:104C500000040020A08601000D4810B50B4901603A
:104C60004FF4E1314160002181600C22C160C0E954
:104C700004128161C1610162FFF700FA002803D0CC
:104C8000BDE81040FCF78AB910BD000000480040A4
:104C9000480400200C4810B50A4901604FF4E13186
:104CA0004160002181600C22C160C0E90412816171
:104CB000C161FFF70FF8002803D0BDE81040FCF7F2
:104CC0006DB910BD001401408C04002010B5002205
:104CD0000F49104801F058FB08B1FCF75FF90E4985
:104CE0000C4801F068FD08B1FCF758F90B49094878
:104CF00001F01AF908B1FCF751F9064801F0DEFDA0
:104D0000002803D0BDE81040FCF748B910BD0000F2
:104D10003C000020FC060020880100208C000020C0
:104D2000FEE7FEE70148FDF72FBC0000F81D00205C
:104D30002DE9F04103680D4604461E6C03EB451156
:104D4000D1F8080B94F806E04FF400474FF0200C20
:104D500004F29C42BEF1010F09D0DFF898E07645DD
:104D600039D1020432D500BFC1F8087B3FE0224BA5
:104D70005FEA007E04D59E4239D90004F4D436E0BF
:104D80005FEA806E02D5C1F808CB30E010F0280F42
:104D90002DD19E4201D90004E6D405EBC50004EBF9
:104DA0008000D1F8101BD0F87432C1F31201591AE7
:104DB000C0F8681200F51570ADB903691BB1C2687F
:104DC0001144C1600FE0012120680AE080060AD585
:104DD000C1F808CB07E035B9D4F8640218B900214E
:104DE000184602F0E5F8E9B22046FDF7B5FA0020D2
:104DF000BDE8F0810A31544F0A30544F2DE9F84F85
:104E00000E4601EBC60100EB810481460568D4E93A
:104E100009101434884202D90120BDE8F88F081A1D
:104E2000A168814200D20846C01C870805EB4618DD
:104E30001BE000BFA0EB010AA068504500D28246EB
:104E40000AF10300870899F8060000901FFA8AF318
:104E5000F2B22846E16802F0E9FBE16801EB0A00E2
:104E6000E060616901EB0A006061D8F8180980B25E
:104E7000B84205D3D4E90401814201D20028D9D136
:104E8000D4E90401884208D806F00F0101208840C7
:104E9000D5F834188143C5F834180020BDE780EDFB
:104EA000140A30EE600A80ED170A704710B5044608
:104EB0002DED068BF7EE009A80ED140A90F88C0029
:104EC000C8B994F84D0002280FD194F84C0001287D
:104ED0000BD194ED111AF0EE601A39EEC12A62EE90
:104EE000211A41EE201AF0EE610AD4F8841020460F
:104EF000884784ED170A002084F88C0094ED0C0A92
:104F00009FED8B9A9FED8B8BB5EEC00AF1EE10FAF8
:104F100012D0D4ED170AF0EEE00AF4EEC00AF1EE7A
:104F200010FA09D284ED1A9A204600F03DF9B0EE4D
:104F3000490ABDEC068B10BD94ED060B53EC182B03
:104F400051EC100BFBF78AFA12D094ED140AD4ED51
:104F5000150A30EE600A10EE100AFBF76CFA94EDB9
:104F6000061B53EC112BFBF7F4F9FBF7A7FA60676C
:104F700094ED000B53EC182B51EC100BFBF76EFA71
:104F80000BD0E06DFBF757FA94ED001B53EC112B9F
:104F9000FBF7DFF9FBF792FAA06794ED020B53ECF5
:104FA000182B51EC100BFBF759FA57D094ED0D0A62
:104FB000B5EEC00AF1EE10FA0BDDD4ED170AF0EEF3
:104FC000E00AF4EEC00AF1EE10FA02DD84ED1F9A59
:104FD00025E094ED0E0AB5EEC00AF1EE10FA0EDDF2
:104FE000D4ED170AF0EEE00AF4EEC00AF1EE10FA82
:104FF00005DDE06BFBF71FFA41EC100B01E094EDCF
:10500000020B51EC100BFBF759FA00EE100AD4ED2D
:105010001F0A94ED171A40EE010AC4ED1F0A94ED21
:10502000080B53EC182B51EC100BFBF72FFA15D291
:1050300094ED080B51EC100BFBF740FA00EE100A50
:1050400000EE900AB1EE40AA94ED1F0A02F0A6FC11
:10505000F0EE4A0A02F07EFC84ED1F0A94ED100A7D
:10506000B5EEC00AF1EE10FA0CDD94ED1F0AD4ED96
:10507000170A20EE200AB5EEC00AF1EE10FA01D2AE
:1050800084ED1F9A94ED040B53EC182B51EC100B8C
:10509000FBF7E4F91DD094ED170A94ED181A70EEA1
:1050A000410AC4ED200A94F84D00012811D194F86A
:1050B0004C0001280DD194ED110A79EEC01A61EE71
:1050C000A00AD4ED191A31EE611A40EE010AC4EDBE
:1050D000200A94ED1D0AD4ED1E0A30EE200AD4ED0C
:1050E0001F0A30EE200AD4ED200A70EE208A94EDDB
:1050F0000A0B51EC100BFBF7E1F900EE100A00EE81
:10510000900AB1EE408AB0EE680A02F047FCF0EE79
:10511000480A02F01FFC84ED1A0AD4F8881009B17D
:1051200020468847204600F03FF894ED1A0A00E731
:105130000000000000000000000000000FB430225A
:105140002DE9F0410446DDE91B85DDE9196708A971
:10515000FBF7DBF8142214A904F13000FBF7D5F8B3
:1051600004F1440181E8C00105B90D4D0020E0655E
:105170002066606620656065A065A066E0669FEDBC
:10518000090AC4F88450206784ED1D0A84ED1E0AC4
:1051900084ED1F0A84ED200ABDE8F0015DF814FBE0
:1051A0009F4E00080000000090ED180A80ED190ADB
:1051B00090ED170A80ED180A90ED150A80ED160A99
:1051C00090ED140A80ED150A90ED1B0A80ED1C0A83
:1051D00090ED1A0A80ED1B0A70470178407841EA89
:1051E00000207047FFF772FD214DAE1558240121B4
:1051F0002846FCF7A0FF204603F0EEF902212846DE
:10520000FCF799FF204603F0E7F904212846FCF754
:1052100092FF204603F0E0F908212846FCF78BFFB7
:10522000204603F0D9F910212846FCF784FF2046D8
:1052300003F0D2F920212846FCF77DFF204603F039
:10524000CBF940212846FCF776FF204603F0C4F94D
:1052500080212846FCF76FFF204603F0BDF9314658
:105260002846FCF768FF204603F0B6F9BEE70000C9
:105270000018024010B54FF0E020006904F064FD12
:10528000012803D0BDE8104004F022BA10BD000090
:1052900030B593B030216846FBF750F814210CA8C4
:1052A000FBF74CF81D480025016841F08051016072
:1052B000006800F0805011901948016841F44041A5
:1052C00001600068022400F4404011900120009029
:1052D000000401908001CDE9064006200890A82036
:1052E000CDE9090407200B906846FDF73DFE08B1A3
:1052F00072B6FEE70CA90F2081E831004FF4A050F0
:105300000F904FF48050109005210CA8FDF71AFD66
:10531000002801D072B6FEE713B030BD403802401D
:10532000007000400248016841F47001016070475C
:1053300088ED00E00148FEF74EB90000B4060020F9
:10534000F0B50268294C2A4D2A4E2B4F2B4B4FF0BB
:10535000804CA04209D0604507D0A84205D0B04299
:1053600003D0B84201D0984204D122F0700E4A68AE
:1053700042EA0E02A0421BD0604519D0A84217D0C5
:10538000B04215D0B84213D0984211D01C4DA8425B
:105390000ED01C4DA8420BD01B4DA84208D01B4D6F
:1053A000A84205D01A4DA84202D01A4DA84203D1F6
:1053B00022F44075CA682A434D6922F080022A43CC
:1053C00002608A68C2620A688262A04201D0984282
:1053D00001D109690163012141610169C90703D054
:1053E000016921F001010161F0BD000000000140F0
:1053F0000004004000080040000C00400004014090
:1054000000400140004401400048014000180040B5
:10541000001C00400020004010B501F01F030121D6
:10542000046A99408C430462016A9A401143016204
:1054300010BD10B5846842EA032224F47F440A4375
:105440002243826010BD826822F070020A4342F05B
:105450000701816070470000F0B5036A026A22F01C
:105460000102026242688469124E24F073050C68DE
:105470002C4323F002058B682B430D4DA84201D02D
:10548000B04205D123F00807CB683B4323F0040367
:10549000A84201D0B04205D14D6922F440721543B3
:1054A0008A692A4342608461496841630362F0BDAE
:1054B0000000014000040140F0B5026A036A23F0D5
:1054C00010030362436884690D6824F4E64444EAE7
:1054D00005248D6822F0200242EA05120F4D104E7D
:1054E000A84201D0B04206D1CF6822F0800242EA41
:1054F000071222F04002A84201D0B04207D14D6904
:1055000023F4406343EA85038D6943EA85034360DE
:105510008461496881630262F0BD000000000140BF
:1055200000040140F0B5026A036A23F48073036249
:105530004368C46922F4007224F073050C68124EAB
:105540002C438D6842EA05220E4DA84201D0B0429C
:1055500006D1CF6822F4006242EA072222F4806278
:10556000A84201D0B04207D14D6923F4405343EA29
:1055700005138D6943EA05134360C4614968C1633B
:105580000262F0BD000001400004014030B5046A31
:10559000026A22F4805202624268C3690D6823F4F1
:1055A000E64343EA05238D6824F4005444EA0534B5
:1055B000084DA84202D0084DA84204D14D6922F4FA
:1055C000804242EA85124260C36149680164046214
:1055D00030BD0000000001400004014010B5036A26
:1055E000046A24F001040462846924F0F00444EAAB
:1055F000021423F00A020A438461026210BD10B54E
:10560000036A046A24F010040462846923F0A0038E
:1056100024F4704444EA023243EA011182610162D7
:1056200010BD00000148FEF71DBA00007003002005
:105630000148FEF717BA0000B803002010B5806BD0
:105640000021C185C184FEF70BFA10BD70B5846BD3
:105650002068406994F84110C0F3C010002521294A
:1056600004D118B1E584204600F08EF82068406926
:1056700094F84210C0F38010222904D118B1E585B6
:10568000204600F05AF8606C40F01000606420463C
:10569000FEF7E6F970BD10B50146806B0968096830
:1056A0004FF00002C9052ED4C28501680C3151E8C3
:1056B000003F23F4807341E80034002CF5D10168E9
:1056C000143151E8003F23F0010341E80034002C7D
:1056D000F5D10168143151E8003F23F0400341E85F
:1056E0000034002CF5D1202180F84210016B0129F3
:1056F00009D101680C3151E8003F23F0100341E863
:105700000034002CF5D14263016B012902D0FEF771
:1057100059FC10BD818DFEF777F910BD10B5806B77
:1057200001214163016B012902D0FEF755FC10BD38
:10573000818D4908FEF768F910BD01680C3151E808
:10574000002F22F4907241E80023002BF5D101686C
:10575000143151E8002F22F0010241E80023002B10
:10576000F5D1016B012909D101680C3151E8002FF5
:1057700022F0100241E80023002BF5D1202180F80F
:10578000421000210163704701680C3151E8002F7D
:1057900022F0C00241E80023002BF5D1202180F83F
:1057A0004110704708B590F84210222901D002201C
:1057B00008BD82684FF480539A4201D1016921B13A
:1057C000816A9A421BD04AB10AE00268816A526833
:1057D000C2F308020A80816A891C08E0026972B17A
:1057E0000268526802F07F020A70816A491C816275
:1057F000C18D491E0904090CC18503D01BE0026854
:105800005268F1E70168CA6822F02002CA600168A4
:10581000CA6822F48072CA6001684A6922F00102F3
:105820004A61202180F8421000214163026B012A65
:1058300003D0FEF7C7FB002008BD016301680C31EF
:1058400051E8002F22F0100241E80023002BF5D18F
:1058500001680A68D20602D50A6849680091818DFC
:10586000FEF7D2F8E7E7000070B50446006801696A
:10587000E26821F44051114301612169A068E269A5
:1058800008436169114308432168CA6849F20C63FF
:105890009A430243CA6020684169A26921F44071B9
:1058A0001143416131492068884202D03049884221
:1058B00002D1FDF717FB01E0FDF704FBE2690023CD
:1058C000192164253226B2F5004F626828D0A0FB6A
:1058D0000101930F9200FAF7E7FC0146B0FBF5F0E7
:1058E0006FF01802504301EB800006EB0010B0FB94
:1058F000F5F000F0F002B1FBF5F002EB0012B1FBA5
:10590000F5F06FF01803584301EB800006EB001030
:10591000B0FBF5F000F00F0021681044886070BD06
:10592000A0FB010192185B41FAF7BEFC0146B0FBF7
:10593000F5F00201B1FBF5F06FF01803584301EBED
:10594000800006EBC000B0FBF5F000F0F80002EBC1
:105950004002B1FBF5F0584301EB800006EBC000BC
:10596000B0FBF5F000F00700D6E7000000100140A2
:105970000014014038B58162044682850020134638
:105980006064222284F84220E56B1B4AEA63E56BDF
:105990001A4A2A64E56B1A4AEA64E26B10650A4601
:1059A0002168E06B091DFCF75DFA2068016840681A
:1059B0000090206948B120680C3050E8001F41F485
:1059C000807140E80012002AF5D12068143050E8B8
:1059D000001F41F0010140E80012002AF5D12068C3
:1059E000143050E8001F41F0400140E80012002A46
:1059F000F5D1002038BD0000975600081D5700085B
:105A00004D56000881628285C285002141642221B1
:105A100080F84210016921B10168CA6842F48072BD
:105A2000CA6001684A6942F001024A610068C168BF
:105A300041F02001C160002070472DE9F8439846ED
:105A400017460D460446089E24E0701C22D0FCF741
:105A50007FFBA0EB0800B0421AD8CEB12068C16825
:105A6000490717D5802D15D0402D13D00168C943A3
:105A700009070FD401680025406800902046FFF711
:105A80005CFE0820606484F840500120BDE8F88383
:105A90000320FBE72068006835EA000004D00020FE
:105AA000B842D2D00020F1E70120F9E70148FDF724
:105AB000D9BF0000000400200148FDF7D3BF00005B
:105AC0008C0400202DE9F04104460068C16821F0F3
:105AD0000C01C16021680869E56820F47C52D4E9B2
